:03000000020003F8
:0C000300787FE4F6D8FD75813102004AD8
:10016100012000110800065B4F666D7D07FFEFF768
:100171007C395E7971FF1021EEDEBE7EEDDDBD7D45
:08018100EBDBBB7BE7D7B7778E
:1001180075A0F0AFA0EF64F0603E7F147E0012017E
:100128008EAFA0EF64F0603075A00FAEA0EE540F54
:10013800FEEF54F04EFFE4FEEEC3941074809480FA
:10014800500F74212EF8E6B50704EE04F5200E8052
:08015800E7AFA0EF640F70F99E
:01016000227C
:10008F00E4F531C2A5D290D291D292D293D294D22A
:10009F0095850880E4F51912011874082520F8E6F3
:1000AF00FF74192531F8E66F600905317419253190
:1000BF00F8A607E51A6009F580C29012018AD2905E
:1000CF00E51B6009F580C29112018AD291E51C608F
:1000DF0009F580C29212018AD292E51D6009F5805E
:1000EF00C29312018AD293E51A600A851E80C294C8
:1000FF0012018AD294E51A609B851F80C295120166
:09010F008A12018AD2950200A3B4
:04018A007F017E0073
:10018E00EF1FAA0670011E4A600FE4FDEDC39464D2
:09019E007480948050EA0D80F396
:0101A7002235
:10000F0002008FE493A3F8E493A34003F68001F278
:10001F0008DFF48029E493A3F85407240CC8C333F2
:10002F00C4540F4420C8834004F456800146F6DFC1
:10003F00E4800B0102040810204080900161E47EEF
:10004F00019360BCA3FF543F30E509541FFEE493B6
:10005F00A360010ECF54C025E060A840B8E493A37D
:10006F00FAE493A3F8E493A3C8C582C8CAC583CAA8
:10007F00F0A3C8C582C8CAC583CADFE9DEE780BE60
:010189000075
:00000001FF
