:03000000020D6787
:0C0D6700787FE4F6D8FD758173020DAEB4
:030F7A00256600E9
:100EDA000173001162003132333435363738393014
:060EEA002B2D2A2F3D2EE6
:100F18007580FFC2B3D2B4D2B5AF80C2B5EF20E7B7
:010F2800F6D2
:010F290022A5
:100F3C00AE07120F18C2B3C2B48E80D2B5C2B5229E
:100F4C00AE07120F18D2B3C2B48E80D2B5C2B5227E
:100F2A00ED7004AC078004EF2440FCEC4480FF021F
:020F3A000F3C6A
:080F7200120F2AAF03020F4C1D
:100E3B008B088A09890A120F2AAB08AA09A90A1278
:100E4B0004DC6013050AE50A7002050914F91204A3
:080E5B00DCFF120F4C80E222C3
:100EF1007F38120F3C7F0C120F3C7F06120F3C7F94
:040F010001020F3C9E
:100EC000EF1FAA0670011E4A600FE4FDEDC3946493
:090ED0007480948050EA0D80F357
:010ED90022F6
:0F0C8200E4F573AF73EF3395E04F6003020D6637
:100C910075A0F085A032E53264F060E87F147E0033
:100CA100120EC085A032AF32EF64F060D775A00F8D
:100CB10085A031EF64E07023E53124F9601A24FC4A
:100CC100601124FE6008147012757301800D757334
:100CD100048008757307800375730FE53264D07063
:100CE10023E53124F9601A24FC601124FE60081404
:100CF1007012757302800D75730580087573088015
:100D01000375730AAF327E00EF64B07023E53124BE
:100D1100F9601A24FC601124FE60081470127573C6
:100D210003800D7573068008757309800375731050
:100D3100EF64704E7023E53124F9601A24FC6011D0
:100D410024FE600814701275730B800D75730C808E
:100D51000875730D800375730EAFA0EF640F7003F8
:050D6100020C8580F486
:010D6600226A
:100E8A008F348E338D328C31AF38AE37AD36AC35C8
:0B0E9A00AB34AA33A932A83102000AD1
:0B0F5C00AB38AA37A936A83502000602
:100EA5008F348E338D328C31AF38AE37AD36AC35AD
:0B0EB500AB34AA33A932A8310200FBC5
:0B0F6700AB38AA37A936A835020204F7
:100A1300E4F522F523F524FE7F14FDFB7A00794EDD
:100A2300120578120EF1120C82AF73EF3395E0FECC
:100A3300D374019FEE6480F8748098500BC3EF94D5
:100A43000BEE648094804006EF64104E7013746262
:100A53002573F8E6FF744E2523F8A6070523020B3A
:100A630089AF73EF3395E0FED3740B9FEE6480F888
:100A73007480985033EF940EEE64809480502985EF
:100A8300734D7B007A00794E120DF38F288E278DDC
:100A9300268C257E007F147D007B007A00794E1220
:100AA3000578E4F523020B89AF73EF3395E0FEEF8E
:080AB300640F4E6003020B8981
:100ABB00FB7A00794E120DF38F2C8E2B8D2A8C29FD
:100ACB00E54D24F4602314603914604F2403706ADD
:100ADB00852C38852B37852A36852935AF28AE27C7
:100AEB00AD26AC25120E8A8049852C38852B37858F
:100AFB002A36852935AF28AE27AD26AC25120F5CDB
:100B0B008030852C38852B37852A36852935AF28BB
:100B1B00AE27AD26AC25120EA58017852C38852B5C
:100B2B0037852A36852935AF28AE27AD26AC251259
:100B3B000F678F308E2F8D2E8C2D7E007F147D00B6
:100B4B007B007A00794E1205787534FF75350F7579
:100B5B00367A85303A852F39852E38852D377B00AF
:100B6B007A00794E120600E4F524744E2524F8E63B
:0E0B7B00FB600B7D01AF24120F72052480EC8D
:100B890074622573F8E6FBE4FDAF22120F720522A9
:030B9900020A2924
:100003000202D6E86480F8E933E83360110460F053
:10001300ED33EC337009E8FCE9FDEAFEEBFF220463
:1000230060DED3EB9FEA9EE99DE8C2E78CF0C2F75E
:1000330095F0400CE8CCF8E9CDF9EACEFAEBCFFB2A
:100043001202A185D0F05804700320D5B3E80470E0
:10005300075002B2D50202E092D5EC0460F7E4CC7B
:10006300C0E0C398F8603B94186008400DD0E0FBF3
:100073000202B8E4FBFAC9FC8028E830E406E4C9CC
:10008300FBE4CAFCE830E305E4C9CACBFCE8540747
:100093006010F8C3E913F9EA13FAEB13FBEC13FC52
:1000A300D8F130F52FC3E49CFCEF9BFFEE9AFEEDF5
:1000B30099FDD0E0FBEF4E4D4C701222DB030202A0
:1000C300DDEC2CFCEF33FFEE33FEED33FDED30E7DB
:1000D300EB0202B8EF2BFFEE3AFEED39FDD0E0FB69
:1000E30050130BBB00030202E0ED13FDEE13FEEF12
:0800F30013FFEC13FC0202B83C
:1000FB00EC4D6011E8497017ED33EC3304600DE4FF
:10010B00FCFFFEFD22E933E8330470F80202D6123D
:10011B0002A158046009E4CC24815006285009023E
:10012B0002E02840030202DDC0E0EB4A7044B980D4
:10013B0006D0E0FB0202CCEF4E701CBD8008EBFF3B
:10014B00EAFEE9FD80EBE98DF0A4FEE5F00201E4A7
:10015B00E9CDF9EAFEEBFFEF89F0A4FCE5F0CE89DF
:10016B00F0A42EFFE435F0CD89F0A42DFEE435F09C
:10017B008067EF4E7005BD80D780C3EF8BF0A4ACCA
:10018B00F0EE8BF0A42CFCE435F0F8EF8AF0A42C05
:10019B00E5F038FCE433CB8DF0A42CFCE5F03BF818
:1001AB00EE8AF0A42CFCE5F038F8E433CF89F0A408
:1001BB002CFCE5F038CF3400CE89F0A42FFFE5F00E
:1001CB003EFEE433C98DF0A42EFEE5F039CD8AF066
:1001DB00A42FFFE5F03EFEE43DFD33D0E0FB5007DE
:1001EB000BBB000F0202E0EC2CFCEF33FFEE33FEF7
:0601FB00ED33FD0202B825
:100201000202E0EC5D046005E8590470030202D6C5
:100211001202A1580460F6EC4860F2EC7004FDFE95
:10022100FF22C860DB2481C85009C39860025006D0
:100231000202DD9850CAF582E9294B4A7005AB826A
:100241000202CC75F0007C1A7880C3EF9BEE9AED28
:1002510099400DC3EF9BFFEE9AFEED99FDE842F048
:10026100DC23ACF0D0E0FFD0E0FED0E0FDAB82209B
:10027100E7101BEB60BAEC2CFCEF33FFEE33FEED25
:1002810033FD0202B8E803F830E705C0F075F0006D
:10029100EF2FFFEE33FEED33FD40B830E7C280AA09
:1005A400E5482434F8E605482278313007027834E7
:1005B400E475F0011205420204DC2000EB7F2ED228
:1005C400008018EF540F2490D43440D4FF30040B2F
:1005D400EF24BFB41A0050032461FFE549600215FB
:1005E40049054CE54C7002054B30070D7831E47534
:1005F400F001120542EF020522020E637403D207D2
:100604008003E4C207F5488B318A328933E4F54923
:10061400F54BF54CE54960077F201205DF80F57541
:100624004AFFC201C200C202C203C205C206C20816
:100634001205ADFF700D3007057F001205F0AF4CB9
:10064400AE4B22B4255FC2D5C2041205ADFF24D03F
:10065400B40A00501A75F00A784930D50508B6FF77
:100664000106C6A426F620D5047002D20380D9243C
:10067400CFB41A00EF5004C2E5D2040208DDD2015F
:1006840080C6D20080C0D20280BCD2D580BAD20546
:1006940080B47F201205DF2002077401B5490040B1
:1006A400F11205A4FF1205DF020618D208D2068053
:1006B400951205A4FB1205A4FA1205A4F94A4B707D
:1006C4000679D47A097BFF20022EE549602A7E0050
:1006D4008E827583001204F560060EEE654A70F092
:1006E400C2D5EBC0E0EAC0E0E9C0E0EE12093DD0BB
:1006F400E0F9D0E0FAD0E0FB1204DCFF60AAEBC022
:10070400E0EAC0E0E9C0E01205DFD0E02401F9D05E
:10071400E03400FAD0E0FBE54A0460DCD54AD98035
:1007240087D20280A212092060F7E54A7001041200
:1007340002EBA94A600DE54A600914F54A1209C79B
:10074400EF60F3EA30E702F404C3995077EAF42542
:100754004A0430E701E404F54A800D12092060C11F
:10076400EA054A254A1202EBEA7847F630E701E443
:10077400254A04D54A042005011412093DE4C0E0C9
:100784001209C77847E6601320E70714F61205C775
:10079400802204F6D0E014C0E07F001205C7E54AC9
:1007A40060071205BE154A800B3005031205BED042
:1007B400E0020618D0E00480C512092060A0E54AD2
:1007C400041202EB7847EAF6E54A200502600104C8
:0507D400240412093DA0
:1007D90074FF04C0E01209C71205C7E54A200502E3
:1007E90060031205BED0E0B54AE87F451205D1780D
:1007F90047E67F2B30E7047F2DF404C0E01205DFC4
:10080900D0E075F00A84C0F01205C8D0E01205C81E
:10081900020618791080027908C206C2088008D237
:10082900D5790A8004790AC2D5E54A047002F54AE5
:10083900E4FAFDFEFF1205A4FC7B08200113120552
:10084900A4FD7B1030000A1205A4FE1205A4FF7B4B
:1008590020EC3382D592D55013C3E43000069FFFB4
:10086900E49EFEE42001039DFDE49CFCE4CBF8C278
:1008790001EC700CCFCECDCCE824F8F870F38017DA
:10088900C3EF33FFEE33FEED33FDEC33FCEB33FB0B
:10089900994002FB0FD8E9EB300105F8D0E0C448D4
:1008A900B201C0E00AEC4D4E4F78207B0070C2EADD
:1008B900B54A0040BCC0E012093FD0F0D0E02001A9
:1008C90004C4C0E0C4B201C0F01205C8D0F0D5F02C
:1008D900EB02061812055206B553081C5806864C39
:1008E90006824208204F082844082849069B4308E5
:1008F9002E55075F4607BD4507294709F450068A63
:100909002D068E2E06B12B06922306AF2009DD2A6D
:10091900064A48000006A9E54AB4FF03754A0612CB
:1009290005A4FC1205A4FD1205A4FE1205A4FF7876
:100939004002031A790AA2D5200314300509B91017
:10094900020404B9080104A2D520060250010420BA
:1009590002689202B549005034C0E07F2030031983
:100969007F30A20272067205500F120996C202C2A6
:1009790006C205C2087F30800F300503E9C0E012C6
:1009890005DF300503D0E0F9D0E0B549CC300517D3
:100999007F30B9100C1205DF7F583004077F78804B
:1009A90003B908031205DF3002057F2D0205DF7F39
:1009B900202008F87F2B2006F322920280CF7F00A7
:1009C900B4070050052440F8E6FF22286E756C6CC8
:1009D9002900D2011205A43001F8C201784930D5A5
:1009E9000108F602064A2D504349581205A424036A
:1009F900B405004001E49009EF931205D0743A124E
:0A0A090005D0D20375490402081C51
:100DF300D2008B318A328933120E2FC0E0FF120FDB
:100E030005D0E040F3120BAF400122ECC0E0EDC08F
:100E1300E0EEC0E0EFC0E0120E2FD0F0AFF0D0F064
:100E2300AEF0D0F0ADF0D0F0ACF080D9E475F001C5
:080E330078311205420204DCD3
:1002A100E9D2E7C933E833F892D5EDD2E7CD33ECA3
:0702B10033FC5002B2D5221C
:1002B800EC30E7100FBF000C0EBE00080DBD0004A7
:1002C8000BEB6014A2D5EB13FCED92E7FD2274FF53
:1002D800FCFDFEFF22E480F8A2D574FF13FC7D80AC
:0302E800E480EFC0
:1002EB00F920E72824F950037907E4F42402FB18DA
:1002FB00DBFDE624FB5014E9600DE4F618E604F68A
:0F030B00B40A08E4F6D9F57401F60A22C2D52225
:10031A00ED33EC3392D5FA602AB4FF33EDC2E77BB2
:10032A00FF60067A03793FE4227A03794820D504EC
:10033A007A037943224E614E002B494E46002D49DD
:10034A004E4600E47A08F608DAFC7B00740722E8D5
:10035A00C0E0ECC0E0EDC0E0EEC0E0EFC0E0EA755E
:10036A00F010A4CAABF075F04DA42BFBE435F0FCF9
:10037A00EA2410FAEB34C5FBEC34D9FCEDC2E7FFF2
:10038A0075F056A4F42411C5F0F434C58FF0A42AEC
:10039A00E5F03BE43CF620E71412049CD0E0FFD0E1
:1003AA00E0FED0E0FDD0E0FC1202048014F4041256
:1003BA00049CD0E0FFD0E0FED0E0FDD0E0FC1200CB
:1003CA00FBD0E0F8E6FAEDD2E7CD33EC332482FB3A
:1003DA00E4C3CF33CFCE33CECD33CD33DBF37B077C
:1003EA0075F00A846004F6081B0AE5F0F6088FF037
:1003FA00740AA4FFACF08EF0740AA42CFEACF05080
:10040A00010C8DF0740AA42CFDE435F0F608DBDE4D
:03041A0074072242
:100B9C00C201C202C203C204F9E4F534F535FCFD0E
:100BAC00FEFFE91000EA20030CB42D04D203D3227B
:100BBC00B42B02D32224D0504794095041240A303C
:100BCC000415F88535F0740AA42872E74051C5F075
:100BDC00704D85F035D322D202C0E0E4FBFA7920C7
:100BEC0078411200FBECF8EDF9EEFAEFFBD0E0FCEB
:100BFC00E412043812000A3001B41534D322240A4A
:100C0C00200420B4FE0720011AD201D32224EB6069
:100C1C000424E0700EA2039201D204C203D322C3B7
:100C2C000202D6E430040BE535300302F404A201D1
:100C3C0092033002EA253420D2E5A2E79204500256
:100C4C00F404B4260050D8CCC0E0EDC0E0EEC0E017
:100C5C00EFC0E0EC12049CD0E0FFD0E0FED0E0FD51
:100C6C00D0E0FC2004051200FB80031202043003C8
:060C7C000312041DC32257
:10041D00ED33EC33600A047003BD8004ECB2E7FCED
:01042D0022AC
:10042E0075F020800E75F010800575F0087D007E49
:10043E00007F003392D530D503120534EC334010D3
:10044E00EF33FFEE33FEED33FDEC33FCD5F0ED2252
:0E045E00E5F0247EA2D513CC92E7CDCEFF228E
:10046C003F8000004120000042C80000447A000098
:10047C00461C400047C35000497424004B1896801A
:10048C004CBEBC205A0E1BCA6753C21C749DC5AE11
:10049C00FB60065407601C23231204CAEB5438601B
:1004AC00091204B61204C51200FBECF8EDF9EEFAD1
:1004BC00EFCB22EB1204C580F1543803241C9004BA
:1004CC006CFE93FC0EEE93FD0EEE930ECE93FF227C
:100D7300020A13E493A3F8E493A34003F68001F279
:100D830008DFF48029E493A3F85407240CC8C33381
:100D9300C4540F4420C8834004F456800146F6DF50
:100DA300E4800B0102040810204080900EDAE47EF8
:100DB300019360BCA3FF543F30E509541FFEE49345
:100DC300A360010ECF54C025E060A840B8E493A30C
:100DD300FAE493A3F8E493A3C8C582C8CAC583CA37
:100DE300F0A3C8C582C8CAC583CADFE9DEE780BEEF
:010EF0000001
:1004DC00BB010689828A83E0225002E722BBFE021E
:0904EC00E32289828A83E4932251
:1004F500BB010CE58229F582E5833AF583E02250BC
:1005050006E92582F8E622BBFE06E92582F8E22205
:0D051500E58229F582E5833AF583E493221F
:10052200BB010689828A83F0225002F722BBFE01B8
:02053200F322B2
:0E053400C3E49FFFE49EFEE49DFDE49CFC22D8
:10054200FAE6FB0808E6F925F0F618E6CA3AF622BA
:10055200D083D082F8E4937012740193700DA3A338
:1005620093F8740193F5828883E47374029368604C
:06057200EFA3A3A380DF4C
:100E6300EFB40A07740D120E6E740A309811A89924
:100E7300B8130CC2983098FDA899C298B811F630EF
:070E830099FDC299F59922C7
:100F0500EFC394094005EF940E4003BF2003D3803F
:030F150001C322F3
:10057800EF4E6012EF60010EEDBB010B89828A839A
:10058800F0A3DFFCDEFA2289F05007F709DFFCA9A7
:0C059800F022BBFEFCF309DFFCA9F022FE
:00000001FF
