:030000000201906A
:0C019000787FE4F6D8FD7581470201D7A6
:10026600014400111E00065B4F666D7D077F6F77A8
:060276007C395E79713F46
:10000300E4F54475A0F0AFA0EF64F070030200CEF6
:100013007F147E0012024CAFA0EF64F07003020065
:10002300CE75A00FAEA0EF64E07022EE24F9601A43
:1000330024FC601124FE6008147012754401800DC5
:100043007544058008754409800375440DEF64D039
:100053007022EE24F9601A24FC601124FE60081457
:100063007012754402800D754406800875440A8039
:100073000375440EEF64B07022EE24F9601A24FC79
:10008300601124FE6008147012754403800D7544DA
:1000930007800875440B800375440FEF6470702468
:1000A300AF06EE24F9601A24FC601124FE600814E4
:1000B3007012754404800D754408800875440C80E3
:0B00C30003754410AFA0EF640F70F94C
:0100CE00220F
:1000CF00E4F545F546F547D290D291D292D293D22C
:1000DF0094D295851E80FE7F14FDFB7A00790A125B
:1000EF00021C120003AF44EF6028D3941174809464
:1000FF0080501F741E2FF8E6FF74302545F8A607B1
:10010F000545E4F544D3E545940774809480400297
:10011F00054674312546F8E66009F580C290120253
:10012F0048D29074322546F8E66009F580C29112E4
:10013F000248D29174332546F8E66009F580C292E1
:10014F00120248D29274342546F8E66009F580C24F
:10015F0093120248D29374352546F8E66009F5806C
:10016F00C294120248D29474362546F8E670030200
:10017F0000F1F580C295120248120248D295020092
:01018F00F17E
:040248007F017E00B4
:10024C00EF1FAA0670011E4A600FE4FDEDC3946413
:09025C007480948050EA0D80F3D7
:010265002276
:10019C000200CFE493A3F8E493A34003F68001F2AA
:1001AC0008DFF48029E493A3F85407240CC8C33364
:1001BC00C4540F4420C8834004F456800146F6DF33
:1001CC00E4800B0102040810204080900266E47E5B
:1001DC00019360BCA3FF543F30E509541FFEE49328
:1001EC00A360010ECF54C025E060A840B8E493A3EF
:1001FC00FAE493A3F8E493A3C8C582C8CAC583CA1A
:10020C00F0A3C8C582C8CAC583CADFE9DEE780BED1
:01027C000081
:10021C00EF4E6012EF60010EEDBB010B89828A83F9
:10022C00F0A3DFFCDEFA2289F05007F709DFFCA906
:0C023C00F022BBFEFCF309DFFCA9F0225D
:00000001FF
