:0300000002009B60
:0C009B00787FE4F6D8FD7581070200585C
:10008100EF1FAA0670011E4A600FE4FDEDC3946ED6
:090091007480948050EA0D80F3A4
:01009A002243
:10005800E4FCA8047401088002C333D8FCF4F590CA
:100068007F507E00120081EC2401FFE433FE7C0007
:090078007D09120003AC0580D9DA
:10000300BC000BBE0029EF8DF084FFADF022E4CCE1
:10001300F875F008EF2FFFEE33FEEC33FCEE9DECAA
:10002300984005FCEE9DFE0FD5F0E9E4CEFD22EDF0
:10003300F8F5F0EE8420D21CFEADF075F008EF2F3A
:10004300FFED33FD4007985006D5F0F222C398FD2B
:050053000FD5F0EA22C8
:00000001FF
