:030000000200B843
:0C00B800787FE4F6D8FD7581170200FF88
:10016200100800065B4F666D7D077F6F777C395EF6
:020172007971A1
:040144007F647E0056
:10014800EF1FAA0670011E4A600FE4FDEDC3946418
:090158007480948050EA0D80F3DC
:01016100227B
:10000300E4FCFBD290D291D292D293D294D295ECCB
:10001300FF3395E0FEC3EF9414EE648094804003B5
:100023000200B774092BF8E66009F580C29012014B
:1000330044D290740A2BF8E66009F580C29112014C
:1000430044D291740B2BF8E66009F580C292120139
:1000530044D292740C2BF8E66009F580C293120126
:1000630044D293740D2BF8E66009F580C294120113
:1000730044D294740E2BF8E6600CF580C2951201FD
:1000830044120144D2950BECFF3395E0FED3EF9479
:1000930014EE648094804002E4FCEBFF3395E0FEB1
:1000A300D3EF940AEE648094804002E4FB1201448F
:0400B3000C02001229
:0100B7002226
:1000C400020003E493A3F8E493A34003F68001F24F
:1000D40008DFF48029E493A3F85407240CC8C3333D
:1000E400C4540F4420C8834004F456800146F6DF0C
:1000F400E4800B0102040810204080900162E47E39
:10010400019360BCA3FF543F30E509541FFEE49300
:10011400A360010ECF54C025E060A840B8E493A3C7
:10012400FAE493A3F8E493A3C8C582C8CAC583CAF2
:10013400F0A3C8C582C8CAC583CADFE9DEE780BEAA
:01017400008A
:00000001FF
