:0300000002015D9D
:0C015D00787FE4F6D8FD7581130201A440
:0B020B000908FFFEFCF8F0E0C08000D6
:0801E900F8E6F5807F287E0096
:1001F100EF1FAA0670011E4A600FE4FDEDC3946E65
:090201007480948050EA0D80F332
:01020A0022D1
:10000300E4F511F51275130FF511C3E51194097495
:10001300809480500B740825111201E9051180EAC0
:10002300E4F511C3E511940974809480500F7408AA
:100033002511F8E6F5901201ED051180E6E4F511BE
:10004300C3E511940974809480500F74082511F846
:10005300E6F5A01201ED051180E67FE87E031201AB
:10006300F1E4F511C3E5119409748094804003020F
:1000730000FEAF11A807E508088002C333D8FCF5DA
:10008300807F647E001201F1AF11A807E5080880A4
:1000930002C313D8FCF5807F647E001201F1AF1117
:1000A300A807E508088002C333D8FCF5A07F647E67
:1000B300001201F1AF11A807E508088002C313D8A5
:1000C300FCF5A07F647E001201F1AF11A807E508DB
:1000D300088002C333D8FCF5907F647E001201F1DF
:1000E300AF11A807E508088002C313D8FCF5907F79
:1000F300647E001201F10511020067E4F511C3E506
:1001030011940974809480500EC3740895112408C7
:100113001201E9051180E7E4F511C3E511940974AF
:100123008094805012C3740895112408F8E6F59062
:100133001201ED051180E3E4F511C3E5119409748F
:100143008094804003020003C3740895112408F8C7
:0A015300E6F5A01201ED051180E0B1
:10016900020003E493A3F8E493A34003F68001F2A9
:1001790008DFF48029E493A3F85407240CC8C33397
:10018900C4540F4420C8834004F456800146F6DF66
:10019900E4800B010204081020408090020BE47EE9
:1001A900019360BCA3FF543F30E509541FFEE4935B
:1001B900A360010ECF54C025E060A840B8E493A322
:1001C900FAE493A3F8E493A3C8C582C8CAC583CA4D
:1001D900F0A3C8C582C8CAC583CADFE9DEE780BE05
:0102160000E7
:00000001FF
